{
  "address": "0xDDaa043AB1427cEBDb12095D55FEC5C42269EE5E",
  "abi": [
    {
      "anonymous": false,
      "inputs": [
        {
          "indexed": false,
          "internalType": "address",
          "name": "_operator",
          "type": "address"
        },
        {
          "indexed": false,
          "internalType": "bool",
          "name": "_access",
          "type": "bool"
        }
      ],
      "name": "AccessUpdated",
      "type": "event"
    },
    {
      "anonymous": false,
      "inputs": [
        {
          "indexed": true,
          "internalType": "address",
          "name": "owner",
          "type": "address"
        },
        {
          "indexed": true,
          "internalType": "address",
          "name": "spender",
          "type": "address"
        },
        {
          "indexed": false,
          "internalType": "uint256",
          "name": "value",
          "type": "uint256"
        }
      ],
      "name": "Approval",
      "type": "event"
    },
    {
      "anonymous": false,
      "inputs": [
        {
          "indexed": true,
          "internalType": "address",
          "name": "previousOwner",
          "type": "address"
        },
        {
          "indexed": true,
          "internalType": "address",
          "name": "newOwner",
          "type": "address"
        }
      ],
      "name": "OwnershipTransferred",
      "type": "event"
    },
    {
      "anonymous": false,
      "inputs": [
        {
          "indexed": true,
          "internalType": "address",
          "name": "from",
          "type": "address"
        },
        {
          "indexed": true,
          "internalType": "address",
          "name": "to",
          "type": "address"
        },
        {
          "indexed": false,
          "internalType": "uint256",
          "name": "value",
          "type": "uint256"
        }
      ],
      "name": "Transfer",
      "type": "event"
    },
    {
      "inputs": [],
      "name": "FACTOR_DENOMINATOR",
      "outputs": [
        {
          "internalType": "uint256",
          "name": "",
          "type": "uint256"
        }
      ],
      "stateMutability": "view",
      "type": "function"
    },
    {
      "inputs": [
        {
          "internalType": "address",
          "name": "",
          "type": "address"
        }
      ],
      "name": "access",
      "outputs": [
        {
          "internalType": "bool",
          "name": "",
          "type": "bool"
        }
      ],
      "stateMutability": "view",
      "type": "function"
    },
    {
      "inputs": [
        {
          "internalType": "address",
          "name": "owner",
          "type": "address"
        },
        {
          "internalType": "address",
          "name": "spender",
          "type": "address"
        }
      ],
      "name": "allowance",
      "outputs": [
        {
          "internalType": "uint256",
          "name": "",
          "type": "uint256"
        }
      ],
      "stateMutability": "view",
      "type": "function"
    },
    {
      "inputs": [
        {
          "internalType": "address",
          "name": "spender",
          "type": "address"
        },
        {
          "internalType": "uint256",
          "name": "amount",
          "type": "uint256"
        }
      ],
      "name": "approve",
      "outputs": [
        {
          "internalType": "bool",
          "name": "",
          "type": "bool"
        }
      ],
      "stateMutability": "nonpayable",
      "type": "function"
    },
    {
      "inputs": [
        {
          "internalType": "address",
          "name": "account",
          "type": "address"
        }
      ],
      "name": "balanceOf",
      "outputs": [
        {
          "internalType": "uint256",
          "name": "",
          "type": "uint256"
        }
      ],
      "stateMutability": "view",
      "type": "function"
    },
    {
      "inputs": [],
      "name": "decimals",
      "outputs": [
        {
          "internalType": "uint8",
          "name": "",
          "type": "uint8"
        }
      ],
      "stateMutability": "view",
      "type": "function"
    },
    {
      "inputs": [
        {
          "internalType": "address",
          "name": "spender",
          "type": "address"
        },
        {
          "internalType": "uint256",
          "name": "subtractedValue",
          "type": "uint256"
        }
      ],
      "name": "decreaseAllowance",
      "outputs": [
        {
          "internalType": "bool",
          "name": "",
          "type": "bool"
        }
      ],
      "stateMutability": "nonpayable",
      "type": "function"
    },
    {
      "inputs": [],
      "name": "factor",
      "outputs": [
        {
          "internalType": "uint256",
          "name": "",
          "type": "uint256"
        }
      ],
      "stateMutability": "view",
      "type": "function"
    },
    {
      "inputs": [
        {
          "internalType": "address",
          "name": "spender",
          "type": "address"
        },
        {
          "internalType": "uint256",
          "name": "addedValue",
          "type": "uint256"
        }
      ],
      "name": "increaseAllowance",
      "outputs": [
        {
          "internalType": "bool",
          "name": "",
          "type": "bool"
        }
      ],
      "stateMutability": "nonpayable",
      "type": "function"
    },
    {
      "inputs": [],
      "name": "initialize",
      "outputs": [],
      "stateMutability": "nonpayable",
      "type": "function"
    },
    {
      "inputs": [],
      "name": "maxSupply",
      "outputs": [
        {
          "internalType": "uint256",
          "name": "",
          "type": "uint256"
        }
      ],
      "stateMutability": "view",
      "type": "function"
    },
    {
      "inputs": [
        {
          "internalType": "address",
          "name": "_to",
          "type": "address"
        },
        {
          "internalType": "uint256",
          "name": "_amount",
          "type": "uint256"
        }
      ],
      "name": "mint",
      "outputs": [],
      "stateMutability": "nonpayable",
      "type": "function"
    },
    {
      "inputs": [],
      "name": "name",
      "outputs": [
        {
          "internalType": "string",
          "name": "",
          "type": "string"
        }
      ],
      "stateMutability": "view",
      "type": "function"
    },
    {
      "inputs": [],
      "name": "owner",
      "outputs": [
        {
          "internalType": "address",
          "name": "",
          "type": "address"
        }
      ],
      "stateMutability": "view",
      "type": "function"
    },
    {
      "inputs": [],
      "name": "reductionPerCliff",
      "outputs": [
        {
          "internalType": "uint256",
          "name": "",
          "type": "uint256"
        }
      ],
      "stateMutability": "view",
      "type": "function"
    },
    {
      "inputs": [],
      "name": "renounceOwnership",
      "outputs": [],
      "stateMutability": "nonpayable",
      "type": "function"
    },
    {
      "inputs": [
        {
          "internalType": "address",
          "name": "_operator",
          "type": "address"
        },
        {
          "internalType": "bool",
          "name": "_access",
          "type": "bool"
        }
      ],
      "name": "setAccess",
      "outputs": [],
      "stateMutability": "nonpayable",
      "type": "function"
    },
    {
      "inputs": [
        {
          "internalType": "uint256",
          "name": "_factor",
          "type": "uint256"
        }
      ],
      "name": "setFactor",
      "outputs": [],
      "stateMutability": "nonpayable",
      "type": "function"
    },
    {
      "inputs": [],
      "name": "symbol",
      "outputs": [
        {
          "internalType": "string",
          "name": "",
          "type": "string"
        }
      ],
      "stateMutability": "view",
      "type": "function"
    },
    {
      "inputs": [],
      "name": "totalCliffs",
      "outputs": [
        {
          "internalType": "uint256",
          "name": "",
          "type": "uint256"
        }
      ],
      "stateMutability": "view",
      "type": "function"
    },
    {
      "inputs": [],
      "name": "totalSupply",
      "outputs": [
        {
          "internalType": "uint256",
          "name": "",
          "type": "uint256"
        }
      ],
      "stateMutability": "view",
      "type": "function"
    },
    {
      "inputs": [
        {
          "internalType": "address",
          "name": "recipient",
          "type": "address"
        },
        {
          "internalType": "uint256",
          "name": "amount",
          "type": "uint256"
        }
      ],
      "name": "transfer",
      "outputs": [
        {
          "internalType": "bool",
          "name": "",
          "type": "bool"
        }
      ],
      "stateMutability": "nonpayable",
      "type": "function"
    },
    {
      "inputs": [
        {
          "internalType": "address",
          "name": "sender",
          "type": "address"
        },
        {
          "internalType": "address",
          "name": "recipient",
          "type": "address"
        },
        {
          "internalType": "uint256",
          "name": "amount",
          "type": "uint256"
        }
      ],
      "name": "transferFrom",
      "outputs": [
        {
          "internalType": "bool",
          "name": "",
          "type": "bool"
        }
      ],
      "stateMutability": "nonpayable",
      "type": "function"
    },
    {
      "inputs": [
        {
          "internalType": "address",
          "name": "newOwner",
          "type": "address"
        }
      ],
      "name": "transferOwnership",
      "outputs": [],
      "stateMutability": "nonpayable",
      "type": "function"
    }
  ],
  "transactionHash": "0xebba5bcc670905c72ca5cbd0a8bd40dcb0a9f3e1970b26214280b485484fef69",
  "args": [],
  "numDeployments": 1,
  "solcInputHash": "5349d3c40de4ab769f7a4d2814e08aff",
  "bytecode": "0x608060405234801561001057600080fd5b5061181c806100206000396000f3fe608060405234801561001057600080fd5b50600436106101585760003560e01c8063715018a6116100c3578063a9059cbb1161007c578063a9059cbb146103cb578063aa74e622146103f7578063b84614a5146103ff578063d5abeb011461042d578063dd62ed3e14610435578063f2fde38b1461046357610158565b8063715018a6146103465780638129fc1c1461034e578063817e9d31146103565780638da5cb5b1461037357806395d89b4114610397578063a457c2d71461039f57610158565b80633950935111610115578063395093511461029057806340c10f19146102bc57806354f703f8146102ea5780635ef73d58146102f25780636fae3d76146102fa57806370a082311461032057610158565b806306fdde031461015d578063095ea7b3146101da57806318160ddd1461021a5780631f96e76f1461023457806323b872dd1461023c578063313ce56714610272575b600080fd5b610165610489565b6040805160208082528351818301528351919283929083019185019080838360005b8381101561019f578181015183820152602001610187565b50505050905090810190601f1680156101cc5780820380516001836020036101000a031916815260200191505b509250505060405180910390f35b610206600480360360408110156101f057600080fd5b506001600160a01b03813516906020013561051f565b604080519115158252519081900360200190f35b61022261053d565b60408051918252519081900360200190f35b610222610543565b6102066004803603606081101561025257600080fd5b506001600160a01b03813581169160208101359091169060400135610549565b61027a6105d0565b6040805160ff9092168252519081900360200190f35b610206600480360360408110156102a657600080fd5b506001600160a01b0381351690602001356105d9565b6102e8600480360360408110156102d257600080fd5b506001600160a01b038135169060200135610627565b005b61022261074a565b610222610750565b6102066004803603602081101561031057600080fd5b50356001600160a01b0316610756565b6102226004803603602081101561033657600080fd5b50356001600160a01b031661076b565b6102e8610786565b6102e8610828565b6102e86004803603602081101561036c57600080fd5b5035610996565b61037b6109f3565b604080516001600160a01b039092168252519081900360200190f35b610165610a02565b610206600480360360408110156103b557600080fd5b506001600160a01b038135169060200135610a63565b610206600480360360408110156103e157600080fd5b506001600160a01b038135169060200135610acb565b610222610adf565b6102e86004803603604081101561041557600080fd5b506001600160a01b0381351690602001351515610ae5565b610222610bf1565b6102226004803603604081101561044b57600080fd5b506001600160a01b0381358116916020013516610bf7565b6102e86004803603602081101561047957600080fd5b50356001600160a01b0316610c22565b60368054604080516020601f60026000196101006001881615020190951694909404938401819004810282018101909252828152606093909290918301828280156105155780601f106104ea57610100808354040283529160200191610515565b820191906000526020600020905b8154815290600101906020018083116104f857829003601f168201915b5050505050905090565b600061053361052c610d1b565b8484610d1f565b5060015b92915050565b60355490565b60995481565b6000610556848484610e0b565b6105c684610562610d1b565b6105c185604051806060016040528060288152602001611731602891396001600160a01b038a166000908152603460205260408120906105a0610d1b565b6001600160a01b031681526020810191909152604001600020549190610f68565b610d1f565b5060019392505050565b60385460ff1690565b60006105336105e6610d1b565b846105c185603460006105f7610d1b565b6001600160a01b03908116825260208083019390935260409182016000908120918c168152925290205490610fff565b3360009081526097602052604090205460ff16610673576040805162461bcd60e51b8152602060048201526005602482015264042c2eae8d60db1b604482015290519081900360640190fd5b600061067d61053d565b9050806106945761068e8383611060565b50610746565b60006106ab609a548361115290919063ffffffff16565b9050609954811015610743576099546000906106c79083611194565b6099549091506106e1906106db86846111d6565b90611152565b9350609b5460001461070d576107086127106106db609b54876111d690919063ffffffff16565b61070f565b835b935060006107288460985461119490919063ffffffff16565b905080851115610736578094505b6107408686611060565b50505b50505b5050565b609b5481565b61271081565b60976020526000908152604090205460ff1681565b6001600160a01b031660009081526033602052604090205490565b61078e610d1b565b6065546001600160a01b039081169116146107de576040805162461bcd60e51b81526020600482018190526024820152600080516020611759833981519152604482015290519081900360640190fd5b6065546040516000916001600160a01b0316907f8be0079c531659141344cd1fd0a4f28419497f9722a3daafe3b4186f6b6457e0908390a3606580546001600160a01b0319169055565b600054610100900460ff1680610841575061084161122f565b8061084f575060005460ff16155b61088a5760405162461bcd60e51b815260040180806020018281038252602e8152602001806116e2602e913960400191505060405180910390fd5b600054610100900460ff161580156108b5576000805460ff1961ff0019909116610100171660011790555b6108bd611235565b6109056040518060400160405280600b81526020016a28bab7b636102a37b5b2b760a91b8152506040518060400160405280600381526020016251554f60e81b8152506112e6565b336000908152609760205260409020805460ff191660011790556b033b2e3c9fd0803ce800000060988190556103e860998190556109439190611152565b609a55604080513381526001602082015281517f18ac1b80d115f1f71f132ed0e5ffe7a01649c5e7a4687b7aa8bdcbde68455939929181900390910190a18015610993576000805461ff00191690555b50565b61099e610d1b565b6065546001600160a01b039081169116146109ee576040805162461bcd60e51b81526020600482018190526024820152600080516020611759833981519152604482015290519081900360640190fd5b609b55565b6065546001600160a01b031690565b60378054604080516020601f60026000196101006001881615020190951694909404938401819004810282018101909252828152606093909290918301828280156105155780601f106104ea57610100808354040283529160200191610515565b6000610533610a70610d1b565b846105c1856040518060600160405280602581526020016117c26025913960346000610a9a610d1b565b6001600160a01b03908116825260208083019390935260409182016000908120918d16815292529020549190610f68565b6000610533610ad8610d1b565b8484610e0b565b609a5481565b610aed610d1b565b6065546001600160a01b03908116911614610b3d576040805162461bcd60e51b81526020600482018190526024820152600080516020611759833981519152604482015290519081900360640190fd5b6001600160a01b038216610b8d576040805162461bcd60e51b8152602060048201526012602482015271696e76616c6964205f6f70657261746f722160701b604482015290519081900360640190fd5b6001600160a01b038216600081815260976020908152604091829020805460ff191685151590811790915582519384529083015280517f18ac1b80d115f1f71f132ed0e5ffe7a01649c5e7a4687b7aa8bdcbde684559399281900390910190a15050565b60985481565b6001600160a01b03918216600090815260346020908152604080832093909416825291909152205490565b610c2a610d1b565b6065546001600160a01b03908116911614610c7a576040805162461bcd60e51b81526020600482018190526024820152600080516020611759833981519152604482015290519081900360640190fd5b6001600160a01b038116610cbf5760405162461bcd60e51b81526004018080602001828103825260268152602001806116746026913960400191505060405180910390fd5b6065546040516001600160a01b038084169216907f8be0079c531659141344cd1fd0a4f28419497f9722a3daafe3b4186f6b6457e090600090a3606580546001600160a01b0319166001600160a01b0392909216919091179055565b3390565b6001600160a01b038316610d645760405162461bcd60e51b815260040180806020018281038252602481526020018061179e6024913960400191505060405180910390fd5b6001600160a01b038216610da95760405162461bcd60e51b815260040180806020018281038252602281526020018061169a6022913960400191505060405180910390fd5b6001600160a01b03808416600081815260346020908152604080832094871680845294825291829020859055815185815291517f8c5be1e5ebec7d5bd14f71427d1e84f3dd0314c0f7b2291e5b200ac8c7c3b9259281900390910190a3505050565b6001600160a01b038316610e505760405162461bcd60e51b81526004018080602001828103825260258152602001806117796025913960400191505060405180910390fd5b6001600160a01b038216610e955760405162461bcd60e51b81526004018080602001828103825260238152602001806116516023913960400191505060405180910390fd5b610ea08383836113ba565b610edd816040518060600160405280602681526020016116bc602691396001600160a01b0386166000908152603360205260409020549190610f68565b6001600160a01b038085166000908152603360205260408082209390935590841681522054610f0c9082610fff565b6001600160a01b0380841660008181526033602090815260409182902094909455805185815290519193928716927fddf252ad1be2c89b69c2b068fc378daa952ba7f163c4a11628f55a4df523b3ef92918290030190a3505050565b60008184841115610ff75760405162461bcd60e51b81526004018080602001828103825283818151815260200191508051906020019080838360005b83811015610fbc578181015183820152602001610fa4565b50505050905090810190601f168015610fe95780820380516001836020036101000a031916815260200191505b509250505060405180910390fd5b505050900390565b600082820183811015611059576040805162461bcd60e51b815260206004820152601b60248201527f536166654d6174683a206164646974696f6e206f766572666c6f770000000000604482015290519081900360640190fd5b9392505050565b6001600160a01b0382166110bb576040805162461bcd60e51b815260206004820152601f60248201527f45524332303a206d696e7420746f20746865207a65726f206164647265737300604482015290519081900360640190fd5b6110c7600083836113ba565b6035546110d49082610fff565b6035556001600160a01b0382166000908152603360205260409020546110fa9082610fff565b6001600160a01b03831660008181526033602090815260408083209490945583518581529351929391927fddf252ad1be2c89b69c2b068fc378daa952ba7f163c4a11628f55a4df523b3ef9281900390910190a35050565b600061105983836040518060400160405280601a81526020017f536166654d6174683a206469766973696f6e206279207a65726f0000000000008152506113bf565b600061105983836040518060400160405280601e81526020017f536166654d6174683a207375627472616374696f6e206f766572666c6f770000815250610f68565b6000826111e557506000610537565b828202828482816111f257fe5b04146110595760405162461bcd60e51b81526004018080602001828103825260218152602001806117106021913960400191505060405180910390fd5b303b1590565b600054610100900460ff168061124e575061124e61122f565b8061125c575060005460ff16155b6112975760405162461bcd60e51b815260040180806020018281038252602e8152602001806116e2602e913960400191505060405180910390fd5b600054610100900460ff161580156112c2576000805460ff1961ff0019909116610100171660011790555b6112ca611424565b6112d26114c4565b8015610993576000805461ff001916905550565b600054610100900460ff16806112ff57506112ff61122f565b8061130d575060005460ff16155b6113485760405162461bcd60e51b815260040180806020018281038252602e8152602001806116e2602e913960400191505060405180910390fd5b600054610100900460ff16158015611373576000805460ff1961ff0019909116610100171660011790555b82516113869060369060208601906115bd565b50815161139a9060379060208501906115bd565b506038805460ff1916601217905580156113ba576000805461ff00191690555b505050565b6000818361140e5760405162461bcd60e51b8152602060048201818152835160248401528351909283926044909101919085019080838360008315610fbc578181015183820152602001610fa4565b50600083858161141a57fe5b0495945050505050565b600054610100900460ff168061143d575061143d61122f565b8061144b575060005460ff16155b6114865760405162461bcd60e51b815260040180806020018281038252602e8152602001806116e2602e913960400191505060405180910390fd5b600054610100900460ff161580156112d2576000805460ff1961ff0019909116610100171660011790558015610993576000805461ff001916905550565b600054610100900460ff16806114dd57506114dd61122f565b806114eb575060005460ff16155b6115265760405162461bcd60e51b815260040180806020018281038252602e8152602001806116e2602e913960400191505060405180910390fd5b600054610100900460ff16158015611551576000805460ff1961ff0019909116610100171660011790555b600061155b610d1b565b606580546001600160a01b0319166001600160a01b038316908117909155604051919250906000907f8be0079c531659141344cd1fd0a4f28419497f9722a3daafe3b4186f6b6457e0908290a3508015610993576000805461ff001916905550565b828054600181600116156101000203166002900490600052602060002090601f016020900481019282601f106115fe57805160ff191683800117855561162b565b8280016001018555821561162b579182015b8281111561162b578251825591602001919060010190611610565b5061163792915061163b565b5090565b5b80821115611637576000815560010161163c56fe45524332303a207472616e7366657220746f20746865207a65726f20616464726573734f776e61626c653a206e6577206f776e657220697320746865207a65726f206164647265737345524332303a20617070726f766520746f20746865207a65726f206164647265737345524332303a207472616e7366657220616d6f756e7420657863656564732062616c616e6365496e697469616c697a61626c653a20636f6e747261637420697320616c726561647920696e697469616c697a6564536166654d6174683a206d756c7469706c69636174696f6e206f766572666c6f7745524332303a207472616e7366657220616d6f756e74206578636565647320616c6c6f77616e63654f776e61626c653a2063616c6c6572206973206e6f7420746865206f776e657245524332303a207472616e736665722066726f6d20746865207a65726f206164647265737345524332303a20617070726f76652066726f6d20746865207a65726f206164647265737345524332303a2064656372656173656420616c6c6f77616e63652062656c6f77207a65726fa2646970667358221220b608026dc2c863d0fb0e4333d33e6ea7a6ef63f9c3e1bc209b7fddef24a8cca764736f6c634300060c0033",
  "devdoc": {
    "kind": "dev",
    "methods": {
      "allowance(address,address)": {
        "details": "See {IERC20-allowance}."
      },
      "approve(address,uint256)": {
        "details": "See {IERC20-approve}. Requirements: - `spender` cannot be the zero address."
      },
      "balanceOf(address)": {
        "details": "See {IERC20-balanceOf}."
      },
      "decimals()": {
        "details": "Returns the number of decimals used to get its user representation. For example, if `decimals` equals `2`, a balance of `505` tokens should be displayed to a user as `5,05` (`505 / 10 ** 2`). Tokens usually opt for a value of 18, imitating the relationship between Ether and Wei. This is the value {ERC20} uses, unless {_setupDecimals} is called. NOTE: This information is only used for _display_ purposes: it in no way affects any of the arithmetic of the contract, including {IERC20-balanceOf} and {IERC20-transfer}."
      },
      "decreaseAllowance(address,uint256)": {
        "details": "Atomically decreases the allowance granted to `spender` by the caller. This is an alternative to {approve} that can be used as a mitigation for problems described in {IERC20-approve}. Emits an {Approval} event indicating the updated allowance. Requirements: - `spender` cannot be the zero address. - `spender` must have allowance for the caller of at least `subtractedValue`."
      },
      "increaseAllowance(address,uint256)": {
        "details": "Atomically increases the allowance granted to `spender` by the caller. This is an alternative to {approve} that can be used as a mitigation for problems described in {IERC20-approve}. Emits an {Approval} event indicating the updated allowance. Requirements: - `spender` cannot be the zero address."
      },
      "name()": {
        "details": "Returns the name of the token."
      },
      "owner()": {
        "details": "Returns the address of the current owner."
      },
      "renounceOwnership()": {
        "details": "Leaves the contract without owner. It will not be possible to call `onlyOwner` functions anymore. Can only be called by the current owner. NOTE: Renouncing ownership will leave the contract without an owner, thereby removing any functionality that is only available to the owner."
      },
      "symbol()": {
        "details": "Returns the symbol of the token, usually a shorter version of the name."
      },
      "totalSupply()": {
        "details": "See {IERC20-totalSupply}."
      },
      "transfer(address,uint256)": {
        "details": "See {IERC20-transfer}. Requirements: - `recipient` cannot be the zero address. - the caller must have a balance of at least `amount`."
      },
      "transferFrom(address,address,uint256)": {
        "details": "See {IERC20-transferFrom}. Emits an {Approval} event indicating the updated allowance. This is not required by the EIP. See the note at the beginning of {ERC20}. Requirements: - `sender` and `recipient` cannot be the zero address. - `sender` must have a balance of at least `amount`. - the caller must have allowance for ``sender``'s tokens of at least `amount`."
      },
      "transferOwnership(address)": {
        "details": "Transfers ownership of the contract to a new account (`newOwner`). Can only be called by the current owner."
      }
    },
    "version": 1
  },
  "userdoc": {
    "kind": "user",
    "methods": {},
    "version": 1
  },
  "storageLayout": {
    "storage": [
      {
        "astId": 376,
        "contract": "contracts/QuollToken.sol:QuollToken",
        "label": "_initialized",
        "offset": 0,
        "slot": "0",
        "type": "t_bool"
      },
      {
        "astId": 379,
        "contract": "contracts/QuollToken.sol:QuollToken",
        "label": "_initializing",
        "offset": 1,
        "slot": "0",
        "type": "t_bool"
      },
      {
        "astId": 43,
        "contract": "contracts/QuollToken.sol:QuollToken",
        "label": "__gap",
        "offset": 0,
        "slot": "1",
        "type": "t_array(t_uint256)50_storage"
      },
      {
        "astId": 461,
        "contract": "contracts/QuollToken.sol:QuollToken",
        "label": "_balances",
        "offset": 0,
        "slot": "51",
        "type": "t_mapping(t_address,t_uint256)"
      },
      {
        "astId": 467,
        "contract": "contracts/QuollToken.sol:QuollToken",
        "label": "_allowances",
        "offset": 0,
        "slot": "52",
        "type": "t_mapping(t_address,t_mapping(t_address,t_uint256))"
      },
      {
        "astId": 469,
        "contract": "contracts/QuollToken.sol:QuollToken",
        "label": "_totalSupply",
        "offset": 0,
        "slot": "53",
        "type": "t_uint256"
      },
      {
        "astId": 471,
        "contract": "contracts/QuollToken.sol:QuollToken",
        "label": "_name",
        "offset": 0,
        "slot": "54",
        "type": "t_string_storage"
      },
      {
        "astId": 473,
        "contract": "contracts/QuollToken.sol:QuollToken",
        "label": "_symbol",
        "offset": 0,
        "slot": "55",
        "type": "t_string_storage"
      },
      {
        "astId": 475,
        "contract": "contracts/QuollToken.sol:QuollToken",
        "label": "_decimals",
        "offset": 0,
        "slot": "56",
        "type": "t_uint8"
      },
      {
        "astId": 970,
        "contract": "contracts/QuollToken.sol:QuollToken",
        "label": "__gap",
        "offset": 0,
        "slot": "57",
        "type": "t_array(t_uint256)44_storage"
      },
      {
        "astId": 55,
        "contract": "contracts/QuollToken.sol:QuollToken",
        "label": "_owner",
        "offset": 0,
        "slot": "101",
        "type": "t_address"
      },
      {
        "astId": 173,
        "contract": "contracts/QuollToken.sol:QuollToken",
        "label": "__gap",
        "offset": 0,
        "slot": "102",
        "type": "t_array(t_uint256)49_storage"
      },
      {
        "astId": 16709,
        "contract": "contracts/QuollToken.sol:QuollToken",
        "label": "access",
        "offset": 0,
        "slot": "151",
        "type": "t_mapping(t_address,t_bool)"
      },
      {
        "astId": 16711,
        "contract": "contracts/QuollToken.sol:QuollToken",
        "label": "maxSupply",
        "offset": 0,
        "slot": "152",
        "type": "t_uint256"
      },
      {
        "astId": 16713,
        "contract": "contracts/QuollToken.sol:QuollToken",
        "label": "totalCliffs",
        "offset": 0,
        "slot": "153",
        "type": "t_uint256"
      },
      {
        "astId": 16715,
        "contract": "contracts/QuollToken.sol:QuollToken",
        "label": "reductionPerCliff",
        "offset": 0,
        "slot": "154",
        "type": "t_uint256"
      },
      {
        "astId": 16720,
        "contract": "contracts/QuollToken.sol:QuollToken",
        "label": "factor",
        "offset": 0,
        "slot": "155",
        "type": "t_uint256"
      }
    ],
    "types": {
      "t_address": {
        "encoding": "inplace",
        "label": "address",
        "numberOfBytes": "20"
      },
      "t_array(t_uint256)44_storage": {
        "base": "t_uint256",
        "encoding": "inplace",
        "label": "uint256[44]",
        "numberOfBytes": "1408"
      },
      "t_array(t_uint256)49_storage": {
        "base": "t_uint256",
        "encoding": "inplace",
        "label": "uint256[49]",
        "numberOfBytes": "1568"
      },
      "t_array(t_uint256)50_storage": {
        "base": "t_uint256",
        "encoding": "inplace",
        "label": "uint256[50]",
        "numberOfBytes": "1600"
      },
      "t_bool": {
        "encoding": "inplace",
        "label": "bool",
        "numberOfBytes": "1"
      },
      "t_mapping(t_address,t_bool)": {
        "encoding": "mapping",
        "key": "t_address",
        "label": "mapping(address => bool)",
        "numberOfBytes": "32",
        "value": "t_bool"
      },
      "t_mapping(t_address,t_mapping(t_address,t_uint256))": {
        "encoding": "mapping",
        "key": "t_address",
        "label": "mapping(address => mapping(address => uint256))",
        "numberOfBytes": "32",
        "value": "t_mapping(t_address,t_uint256)"
      },
      "t_mapping(t_address,t_uint256)": {
        "encoding": "mapping",
        "key": "t_address",
        "label": "mapping(address => uint256)",
        "numberOfBytes": "32",
        "value": "t_uint256"
      },
      "t_string_storage": {
        "encoding": "bytes",
        "label": "string",
        "numberOfBytes": "32"
      },
      "t_uint256": {
        "encoding": "inplace",
        "label": "uint256",
        "numberOfBytes": "32"
      },
      "t_uint8": {
        "encoding": "inplace",
        "label": "uint8",
        "numberOfBytes": "1"
      }
    }
  }
}